{
  "contractName": "StartupFunding",
  "abi": [
    {
      "anonymous": false,
      "inputs": [
        {
          "indexed": false,
          "internalType": "uint256",
          "name": "startupId",
          "type": "uint256"
        },
        {
          "indexed": false,
          "internalType": "address",
          "name": "creator",
          "type": "address"
        },
        {
          "indexed": false,
          "internalType": "uint256",
          "name": "goal",
          "type": "uint256"
        }
      ],
      "name": "StartupCreated",
      "type": "event"
    },
    {
      "anonymous": false,
      "inputs": [
        {
          "indexed": false,
          "internalType": "uint256",
          "name": "startupId",
          "type": "uint256"
        },
        {
          "indexed": false,
          "internalType": "address",
          "name": "investor",
          "type": "address"
        }
      ],
      "name": "StartupFunded",
      "type": "event"
    },
    {
      "inputs": [],
      "name": "startupCount",
      "outputs": [
        {
          "internalType": "uint256",
          "name": "",
          "type": "uint256"
        }
      ],
      "stateMutability": "view",
      "type": "function",
      "constant": true
    },
    {
      "inputs": [
        {
          "internalType": "uint256",
          "name": "",
          "type": "uint256"
        }
      ],
      "name": "startups",
      "outputs": [
        {
          "internalType": "address payable",
          "name": "creator",
          "type": "address"
        },
        {
          "internalType": "uint256",
          "name": "goal",
          "type": "uint256"
        },
        {
          "internalType": "bool",
          "name": "funded",
          "type": "bool"
        }
      ],
      "stateMutability": "view",
      "type": "function",
      "constant": true
    },
    {
      "inputs": [
        {
          "internalType": "uint256",
          "name": "goal",
          "type": "uint256"
        }
      ],
      "name": "createStartup",
      "outputs": [],
      "stateMutability": "nonpayable",
      "type": "function"
    },
    {
      "inputs": [
        {
          "internalType": "uint256",
          "name": "startupId",
          "type": "uint256"
        }
      ],
      "name": "fundStartup",
      "outputs": [],
      "stateMutability": "payable",
      "type": "function",
      "payable": true
    }
  ],
  "bytecode": "0x608060405234801561001057600080fd5b506106f3806100206000396000f3fe60806040526004361061003f5760003560e01c806325ce7586146100445780633dc703821461006f578063d91db9a01461008b578063ec14ce7b146100ca575b600080fd5b34801561005057600080fd5b506100596100f3565b6040516100669190610548565b60405180910390f35b610089600480360381019061008491906103ec565b6100f9565b005b34801561009757600080fd5b506100b260048036038101906100ad91906103ec565b61026c565b6040516100c1939291906104d1565b60405180910390f35b3480156100d657600080fd5b506100f160048036038101906100ec91906103ec565b6102c3565b005b60015481565b600080600083815260200190815260200160002090508060020160009054906101000a900460ff1615610161576040517f08c379a000000000000000000000000000000000000000000000000000000000815260040161015890610528565b60405180910390fd5b806001015434146101a7576040517f08c379a000000000000000000000000000000000000000000000000000000000815260040161019e90610508565b60405180910390fd5b60018160020160006101000a81548160ff0219169083151502179055508060000160009054906101000a900473ffffffffffffffffffffffffffffffffffffffff1673ffffffffffffffffffffffffffffffffffffffff166108fc349081150290604051600060405180830381858888f1935050505015801561022e573d6000803e3d6000fd5b507f89ee4e4588a65d5d6bba3a25b5effc78bd392b05377cb759e6f991b95a54dba08233604051610260929190610563565b60405180910390a15050565b60006020528060005260406000206000915090508060000160009054906101000a900473ffffffffffffffffffffffffffffffffffffffff16908060010154908060020160009054906101000a900460ff16905083565b600160008154809291906102d69061062e565b919050555060405180606001604052803373ffffffffffffffffffffffffffffffffffffffff16815260200182815260200160001515815250600080600154815260200190815260200160002060008201518160000160006101000a81548173ffffffffffffffffffffffffffffffffffffffff021916908373ffffffffffffffffffffffffffffffffffffffff1602179055506020820151816001015560408201518160020160006101000a81548160ff0219169083151502179055509050507f2d7098e444744a120c4b0c01aaad607eed50b5459e8d8ee2e447e2e68deca0a060015433836040516103cc9392919061058c565b60405180910390a150565b6000813590506103e6816106a6565b92915050565b6000602082840312156103fe57600080fd5b600061040c848285016103d7565b91505092915050565b61041e816105e6565b82525050565b61042d816105d4565b82525050565b61043c816105f8565b82525050565b600061044f601b836105c3565b91507f4d7573742073656e6420657861637420676f616c20616d6f756e7400000000006000830152602082019050919050565b600061048f6016836105c3565b91507f5374617274757020616c72656164792066756e646564000000000000000000006000830152602082019050919050565b6104cb81610624565b82525050565b60006060820190506104e66000830186610415565b6104f360208301856104c2565b6105006040830184610433565b949350505050565b6000602082019050818103600083015261052181610442565b9050919050565b6000602082019050818103600083015261054181610482565b9050919050565b600060208201905061055d60008301846104c2565b92915050565b600060408201905061057860008301856104c2565b6105856020830184610424565b9392505050565b60006060820190506105a160008301866104c2565b6105ae6020830185610424565b6105bb60408301846104c2565b949350505050565b600082825260208201905092915050565b60006105df82610604565b9050919050565b60006105f182610604565b9050919050565b60008115159050919050565b600073ffffffffffffffffffffffffffffffffffffffff82169050919050565b6000819050919050565b600061063982610624565b91507fffffffffffffffffffffffffffffffffffffffffffffffffffffffffffffffff82141561066c5761066b610677565b5b600182019050919050565b7f4e487b7100000000000000000000000000000000000000000000000000000000600052601160045260246000fd5b6106af81610624565b81146106ba57600080fd5b5056fea264697066735822122062a3168d6367954793177dfc5a165b48ccb8a2b42a36de5776e2ee2a8dee336164736f6c63430008000033",
  "immutableReferences": {},
  "source": "// contracts/StartupFunding.sol\n// SPDX-License-Identifier: MIT\npragma solidity ^0.8.0;\n\ncontract StartupFunding {\n    struct Startup {\n        address payable creator;\n        uint256 goal;\n        bool funded;\n    }\n\n    mapping(uint256 => Startup) public startups;\n    uint256 public startupCount;\n\n    event StartupCreated(uint256 startupId, address creator, uint256 goal);\n    event StartupFunded(uint256 startupId, address investor);\n\n    function createStartup(uint256 goal) public {\n        startupCount++;\n        startups[startupCount] = Startup({\n            creator: payable(msg.sender),\n            goal: goal,\n            funded: false\n        });\n        emit StartupCreated(startupCount, msg.sender, goal);\n    }\n\n    function fundStartup(uint256 startupId) public payable {\n        Startup storage startup = startups[startupId];\n        require(!startup.funded, \"Startup already funded\");\n        require(msg.value == startup.goal, \"Must send exact goal amount\");\n\n        startup.funded = true;\n        startup.creator.transfer(msg.value);\n        emit StartupFunded(startupId, msg.sender);\n    }\n}\n",
  "sourcePath": "/home/akash/Desktop/hackbanglore/contracts/StartupFunding.sol",
  "compiler": {
    "name": "solc",
    "version": "0.8.0+commit.c7dfd78e.Emscripten.clang"
  },
  "schemaVersion": "3.4.16",
  "updatedAt": "2024-07-20T07:05:23.962Z",
  "networkType": "ethereum",
  "devdoc": {
    "kind": "dev",
    "methods": {},
    "version": 1
  },
  "userdoc": {
    "kind": "user",
    "methods": {},
    "version": 1
  }
}